{
  "contractName": "DecentralBank",
  "abi": [
    {
      "inputs": [
        {
          "internalType": "contract RWD",
          "name": "_rwd",
          "type": "address"
        },
        {
          "internalType": "contract STether",
          "name": "_stether",
          "type": "address"
        }
      ],
      "stateMutability": "nonpayable",
      "type": "constructor"
    },
    {
      "inputs": [
        {
          "internalType": "address",
          "name": "",
          "type": "address"
        }
      ],
      "name": "hasStaked",
      "outputs": [
        {
          "internalType": "bool",
          "name": "",
          "type": "bool"
        }
      ],
      "stateMutability": "view",
      "type": "function",
      "constant": true
    },
    {
      "inputs": [
        {
          "internalType": "address",
          "name": "",
          "type": "address"
        }
      ],
      "name": "isStaking",
      "outputs": [
        {
          "internalType": "bool",
          "name": "",
          "type": "bool"
        }
      ],
      "stateMutability": "view",
      "type": "function",
      "constant": true
    },
    {
      "inputs": [],
      "name": "name",
      "outputs": [
        {
          "internalType": "string",
          "name": "",
          "type": "string"
        }
      ],
      "stateMutability": "view",
      "type": "function",
      "constant": true
    },
    {
      "inputs": [],
      "name": "owner",
      "outputs": [
        {
          "internalType": "address",
          "name": "",
          "type": "address"
        }
      ],
      "stateMutability": "view",
      "type": "function",
      "constant": true
    },
    {
      "inputs": [],
      "name": "rwd",
      "outputs": [
        {
          "internalType": "contract RWD",
          "name": "",
          "type": "address"
        }
      ],
      "stateMutability": "view",
      "type": "function",
      "constant": true
    },
    {
      "inputs": [
        {
          "internalType": "uint256",
          "name": "",
          "type": "uint256"
        }
      ],
      "name": "stakers",
      "outputs": [
        {
          "internalType": "address",
          "name": "",
          "type": "address"
        }
      ],
      "stateMutability": "view",
      "type": "function",
      "constant": true
    },
    {
      "inputs": [
        {
          "internalType": "address",
          "name": "",
          "type": "address"
        }
      ],
      "name": "stakingBanlance",
      "outputs": [
        {
          "internalType": "uint256",
          "name": "",
          "type": "uint256"
        }
      ],
      "stateMutability": "view",
      "type": "function",
      "constant": true
    },
    {
      "inputs": [],
      "name": "stether",
      "outputs": [
        {
          "internalType": "contract STether",
          "name": "",
          "type": "address"
        }
      ],
      "stateMutability": "view",
      "type": "function",
      "constant": true
    },
    {
      "inputs": [
        {
          "internalType": "uint256",
          "name": "_amount",
          "type": "uint256"
        }
      ],
      "name": "depositTokens",
      "outputs": [],
      "stateMutability": "nonpayable",
      "type": "function"
    },
    {
      "inputs": [],
      "name": "unstakeTokens",
      "outputs": [],
      "stateMutability": "nonpayable",
      "type": "function"
    },
    {
      "inputs": [],
      "name": "issueTokens",
      "outputs": [],
      "stateMutability": "nonpayable",
      "type": "function"
    }
  ],
  "bytecode": "0x60806040526040518060400160405280600e81526020017f446563656e7472616c2042616e6b000000000000000000000000000000000000815250600090805190602001906200005192919062000150565b503480156200005f57600080fd5b50604051620014c0380380620014c08339818101604052810190620000859190620002c3565b81600360006101000a81548173ffffffffffffffffffffffffffffffffffffffff021916908373ffffffffffffffffffffffffffffffffffffffff16021790555080600260006101000a81548173ffffffffffffffffffffffffffffffffffffffff021916908373ffffffffffffffffffffffffffffffffffffffff16021790555033600160006101000a81548173ffffffffffffffffffffffffffffffffffffffff021916908373ffffffffffffffffffffffffffffffffffffffff16021790555050506200036f565b8280546200015e9062000339565b90600052602060002090601f016020900481019282620001825760008555620001ce565b82601f106200019d57805160ff1916838001178555620001ce565b82800160010185558215620001ce579182015b82811115620001cd578251825591602001919060010190620001b0565b5b509050620001dd9190620001e1565b5090565b5b80821115620001fc576000816000905550600101620001e2565b5090565b600080fd5b600073ffffffffffffffffffffffffffffffffffffffff82169050919050565b6000620002328262000205565b9050919050565b6000620002468262000225565b9050919050565b620002588162000239565b81146200026457600080fd5b50565b60008151905062000278816200024d565b92915050565b60006200028b8262000225565b9050919050565b6200029d816200027e565b8114620002a957600080fd5b50565b600081519050620002bd8162000292565b92915050565b60008060408385031215620002dd57620002dc62000200565b5b6000620002ed8582860162000267565b92505060206200030085828601620002ac565b9150509250929050565b7f4e487b7100000000000000000000000000000000000000000000000000000000600052602260045260246000fd5b600060028204905060018216806200035257607f821691505b602082108114156200036957620003686200030a565b5b50919050565b611141806200037f6000396000f3fe608060405234801561001057600080fd5b50600436106100a95760003560e01c80636f49712b116100715780636f49712b146101425780638da5cb5b14610172578063a5ce413b14610190578063c93c8f341461019a578063dd49756e146101ca578063fd5e6dd1146101e6576100a9565b806306fdde03146100ae57806317c6f1ab146100cc5780631a8972d3146100fc5780632f76dbf91461011a57806360ab585214610138575b600080fd5b6100b6610216565b6040516100c39190610ad5565b60405180910390f35b6100e660048036038101906100e19190610b5a565b6102a4565b6040516100f39190610ba0565b60405180910390f35b6101046102bc565b6040516101119190610c1a565b60405180910390f35b6101226102e2565b60405161012f9190610c56565b60405180910390f35b610140610308565b005b61015c60048036038101906101579190610b5a565b61050d565b6040516101699190610c8c565b60405180910390f35b61017a61052d565b6040516101879190610cb6565b60405180910390f35b610198610553565b005b6101b460048036038101906101af9190610b5a565b61072a565b6040516101c19190610c8c565b60405180910390f35b6101e460048036038101906101df9190610cfd565b61074a565b005b61020060048036038101906101fb9190610cfd565b6109fd565b60405161020d9190610cb6565b60405180910390f35b6000805461022390610d59565b80601f016020809104026020016040519081016040528092919081815260200182805461024f90610d59565b801561029c5780601f106102715761010080835404028352916020019161029c565b820191906000526020600020905b81548152906001019060200180831161027f57829003601f168201915b505050505081565b60056020528060005260406000206000915090505481565b600360009054906101000a900473ffffffffffffffffffffffffffffffffffffffff1681565b600260009054906101000a900473ffffffffffffffffffffffffffffffffffffffff1681565b600160009054906101000a900473ffffffffffffffffffffffffffffffffffffffff1673ffffffffffffffffffffffffffffffffffffffff163373ffffffffffffffffffffffffffffffffffffffff1614610398576040517f08c379a000000000000000000000000000000000000000000000000000000000815260040161038f90610dd7565b60405180910390fd5b60005b60048054905081101561050a576000600482815481106103be576103bd610df7565b5b9060005260206000200160009054906101000a900473ffffffffffffffffffffffffffffffffffffffff16905060006009600560008473ffffffffffffffffffffffffffffffffffffffff1673ffffffffffffffffffffffffffffffffffffffff168152602001908152602001600020546104399190610e84565b905060008111156104f557600360009054906101000a900473ffffffffffffffffffffffffffffffffffffffff1673ffffffffffffffffffffffffffffffffffffffff1663a9059cbb83836040518363ffffffff1660e01b81526004016104a1929190610eb5565b602060405180830381600087803b1580156104bb57600080fd5b505af11580156104cf573d6000803e3d6000fd5b505050506040513d601f19601f820116820180604052508101906104f39190610f0a565b505b5050808061050290610f37565b91505061039b565b50565b60076020528060005260406000206000915054906101000a900460ff1681565b600160009054906101000a900473ffffffffffffffffffffffffffffffffffffffff1681565b6000600560003373ffffffffffffffffffffffffffffffffffffffff1673ffffffffffffffffffffffffffffffffffffffff168152602001908152602001600020549050600081116105da576040517f08c379a00000000000000000000000000000000000000000000000000000000081526004016105d190610ff2565b60405180910390fd5b600260009054906101000a900473ffffffffffffffffffffffffffffffffffffffff1673ffffffffffffffffffffffffffffffffffffffff1663a9059cbb33836040518363ffffffff1660e01b8152600401610637929190610eb5565b602060405180830381600087803b15801561065157600080fd5b505af1158015610665573d6000803e3d6000fd5b505050506040513d601f19601f820116820180604052508101906106899190610f0a565b506000600560003373ffffffffffffffffffffffffffffffffffffffff1673ffffffffffffffffffffffffffffffffffffffff168152602001908152602001600020819055506000600760003373ffffffffffffffffffffffffffffffffffffffff1673ffffffffffffffffffffffffffffffffffffffff16815260200190815260200160002060006101000a81548160ff02191690831515021790555050565b60066020528060005260406000206000915054906101000a900460ff1681565b6000811161078d576040517f08c379a00000000000000000000000000000000000000000000000000000000081526004016107849061105e565b60405180910390fd5b600260009054906101000a900473ffffffffffffffffffffffffffffffffffffffff1673ffffffffffffffffffffffffffffffffffffffff166363b0545f3330846040518463ffffffff1660e01b81526004016107ec9392919061107e565b602060405180830381600087803b15801561080657600080fd5b505af115801561081a573d6000803e3d6000fd5b505050506040513d601f19601f8201168201806040525081019061083e9190610f0a565b5080600560003373ffffffffffffffffffffffffffffffffffffffff1673ffffffffffffffffffffffffffffffffffffffff168152602001908152602001600020600082825461088e91906110b5565b92505081905550600660003373ffffffffffffffffffffffffffffffffffffffff1673ffffffffffffffffffffffffffffffffffffffff16815260200190815260200160002060009054906101000a900460ff1661094a576004339080600181540180825580915050600190039060005260206000200160009091909190916101000a81548173ffffffffffffffffffffffffffffffffffffffff021916908373ffffffffffffffffffffffffffffffffffffffff1602179055505b6001600760003373ffffffffffffffffffffffffffffffffffffffff1673ffffffffffffffffffffffffffffffffffffffff16815260200190815260200160002060006101000a81548160ff0219169083151502179055506001600660003373ffffffffffffffffffffffffffffffffffffffff1673ffffffffffffffffffffffffffffffffffffffff16815260200190815260200160002060006101000a81548160ff02191690831515021790555050565b60048181548110610a0d57600080fd5b906000526020600020016000915054906101000a900473ffffffffffffffffffffffffffffffffffffffff1681565b600081519050919050565b600082825260208201905092915050565b60005b83811015610a76578082015181840152602081019050610a5b565b83811115610a85576000848401525b50505050565b6000601f19601f8301169050919050565b6000610aa782610a3c565b610ab18185610a47565b9350610ac1818560208601610a58565b610aca81610a8b565b840191505092915050565b60006020820190508181036000830152610aef8184610a9c565b905092915050565b600080fd5b600073ffffffffffffffffffffffffffffffffffffffff82169050919050565b6000610b2782610afc565b9050919050565b610b3781610b1c565b8114610b4257600080fd5b50565b600081359050610b5481610b2e565b92915050565b600060208284031215610b7057610b6f610af7565b5b6000610b7e84828501610b45565b91505092915050565b6000819050919050565b610b9a81610b87565b82525050565b6000602082019050610bb56000830184610b91565b92915050565b6000819050919050565b6000610be0610bdb610bd684610afc565b610bbb565b610afc565b9050919050565b6000610bf282610bc5565b9050919050565b6000610c0482610be7565b9050919050565b610c1481610bf9565b82525050565b6000602082019050610c2f6000830184610c0b565b92915050565b6000610c4082610be7565b9050919050565b610c5081610c35565b82525050565b6000602082019050610c6b6000830184610c47565b92915050565b60008115159050919050565b610c8681610c71565b82525050565b6000602082019050610ca16000830184610c7d565b92915050565b610cb081610b1c565b82525050565b6000602082019050610ccb6000830184610ca7565b92915050565b610cda81610b87565b8114610ce557600080fd5b50565b600081359050610cf781610cd1565b92915050565b600060208284031215610d1357610d12610af7565b5b6000610d2184828501610ce8565b91505092915050565b7f4e487b7100000000000000000000000000000000000000000000000000000000600052602260045260246000fd5b60006002820490506001821680610d7157607f821691505b60208210811415610d8557610d84610d2a565b5b50919050565b7f7468652063616c6c6572206d75737420626520746865206f776e657200000000600082015250565b6000610dc1601c83610a47565b9150610dcc82610d8b565b602082019050919050565b60006020820190508181036000830152610df081610db4565b9050919050565b7f4e487b7100000000000000000000000000000000000000000000000000000000600052603260045260246000fd5b7f4e487b7100000000000000000000000000000000000000000000000000000000600052601260045260246000fd5b7f4e487b7100000000000000000000000000000000000000000000000000000000600052601160045260246000fd5b6000610e8f82610b87565b9150610e9a83610b87565b925082610eaa57610ea9610e26565b5b828204905092915050565b6000604082019050610eca6000830185610ca7565b610ed76020830184610b91565b9392505050565b610ee781610c71565b8114610ef257600080fd5b50565b600081519050610f0481610ede565b92915050565b600060208284031215610f2057610f1f610af7565b5b6000610f2e84828501610ef5565b91505092915050565b6000610f4282610b87565b91507fffffffffffffffffffffffffffffffffffffffffffffffffffffffffffffffff821415610f7557610f74610e55565b5b600182019050919050565b7f7374616b696e672062616c616e63652073686f6c64206265206d6f726520746860008201527f616e207a65726f00000000000000000000000000000000000000000000000000602082015250565b6000610fdc602783610a47565b9150610fe782610f80565b604082019050919050565b6000602082019050818103600083015261100b81610fcf565b9050919050565b7f616d6f756e742063616e6e6f7420626520300000000000000000000000000000600082015250565b6000611048601283610a47565b915061105382611012565b602082019050919050565b600060208201905081810360008301526110778161103b565b9050919050565b60006060820190506110936000830186610ca7565b6110a06020830185610ca7565b6110ad6040830184610b91565b949350505050565b60006110c082610b87565b91506110cb83610b87565b9250827fffffffffffffffffffffffffffffffffffffffffffffffffffffffffffffffff03821115611100576110ff610e55565b5b82820190509291505056fea2646970667358221220152d77e699e7f3dcc6a016627e62cc7f76846a3304a9321e7f3f8ecef1f1868764736f6c63430008090033",
  "immutableReferences": {},
  "source": "pragma solidity ^0.8.0;\r\nimport './RWD.sol';\r\nimport './STether.sol';\r\n\r\ncontract DecentralBank {\r\n    string public name = 'Decentral Bank';\r\n    address public owner;\r\n    STether public stether;\r\n    RWD public rwd;\r\n    \r\n    address[] public stakers;\r\n\r\n    mapping(address => uint256) public stakingBanlance;\r\n    mapping (address => bool) public hasStaked;\r\n    mapping (address => bool) public isStaking;\r\n\r\n    constructor(RWD _rwd, STether _stether) public {\r\n        rwd = _rwd;\r\n        stether = _stether;\r\n        owner = msg.sender;\r\n    }\r\n\r\n    //staking function, depositting tokesn to bank contract \r\n    function depositTokens(uint256 _amount) public {\r\n\r\n        //reqire staking amout should be more than zero\r\n        require(_amount > 0, 'amount cannot be 0');\r\n        //tranfer STether tokens to this contract address for staking\r\n        stether.transferfrom(msg.sender, address(this), _amount);\r\n\r\n        //update staking balance in the bank\r\n        stakingBanlance[msg.sender] += _amount;\r\n\r\n        if(!hasStaked[msg.sender]){\r\n            stakers.push(msg.sender);\r\n        }\r\n\r\n        //update staking details\r\n        isStaking[msg.sender] = true;\r\n        hasStaked[msg.sender] = true;\r\n    }\r\n\r\n    //unstake tokens\r\n    function unstakeTokens() public {\r\n        uint balance = stakingBanlance[msg.sender];\r\n        require(balance > 0, 'staking balance shold be more than zero');\r\n\r\n        //transfer the tokens to the specified contract address from our bank\r\n        stether.transfer(msg.sender, balance);\r\n\r\n        //reset staking balance\r\n        stakingBanlance[msg.sender] = 0;\r\n\r\n        //update staking status\r\n        isStaking[msg.sender] = false;\r\n    }\r\n\r\n    //issue rewards\r\n    function issueTokens() public {\r\n        require(msg.sender == owner, 'the caller must be the owner');\r\n        for (uint i=0; i<stakers.length; i++){\r\n            address recipient = stakers[i];\r\n            uint balance = stakingBanlance[recipient] /9 ; // reward 1/9 of tokens of the amout. Note,  rewards are given based on staking amount and may not be one-to-one  \r\n            if(balance > 0) {\r\n                rwd.transfer(recipient, balance);\r\n            }\r\n        }\r\n\r\n    }\r\n}",
  "sourcePath": "C:\\sree\\projects\\defi-staking-app\\defi-staking-app\\src\\contracts\\DecentralBank.sol",
  "compiler": {
    "name": "solc",
    "version": "0.8.9+commit.e5eed63a.Emscripten.clang"
  },
  "schemaVersion": "3.4.3",
  "updatedAt": "2021-10-12T02:44:58.980Z",
  "networkType": "ethereum",
  "devdoc": {
    "kind": "dev",
    "methods": {},
    "version": 1
  },
  "userdoc": {
    "kind": "user",
    "methods": {},
    "version": 1
  }
}