{
  "contractName": "STether",
  "abi": [
    {
      "inputs": [],
      "stateMutability": "nonpayable",
      "type": "constructor"
    },
    {
      "anonymous": false,
      "inputs": [
        {
          "indexed": true,
          "internalType": "address",
          "name": "_owner",
          "type": "address"
        },
        {
          "indexed": true,
          "internalType": "address",
          "name": "_individual",
          "type": "address"
        },
        {
          "indexed": false,
          "internalType": "uint256",
          "name": "_value",
          "type": "uint256"
        }
      ],
      "name": "Approval",
      "type": "event"
    },
    {
      "anonymous": false,
      "inputs": [
        {
          "indexed": true,
          "internalType": "address",
          "name": "_from",
          "type": "address"
        },
        {
          "indexed": true,
          "internalType": "address",
          "name": "_to",
          "type": "address"
        },
        {
          "indexed": false,
          "internalType": "uint256",
          "name": "_value",
          "type": "uint256"
        }
      ],
      "name": "Transfer",
      "type": "event"
    },
    {
      "inputs": [
        {
          "internalType": "address",
          "name": "",
          "type": "address"
        },
        {
          "internalType": "address",
          "name": "",
          "type": "address"
        }
      ],
      "name": "allowance",
      "outputs": [
        {
          "internalType": "uint256",
          "name": "",
          "type": "uint256"
        }
      ],
      "stateMutability": "view",
      "type": "function",
      "constant": true
    },
    {
      "inputs": [
        {
          "internalType": "address",
          "name": "",
          "type": "address"
        }
      ],
      "name": "balanceof",
      "outputs": [
        {
          "internalType": "uint256",
          "name": "",
          "type": "uint256"
        }
      ],
      "stateMutability": "view",
      "type": "function",
      "constant": true
    },
    {
      "inputs": [],
      "name": "decimals",
      "outputs": [
        {
          "internalType": "uint8",
          "name": "",
          "type": "uint8"
        }
      ],
      "stateMutability": "view",
      "type": "function",
      "constant": true
    },
    {
      "inputs": [],
      "name": "name",
      "outputs": [
        {
          "internalType": "string",
          "name": "",
          "type": "string"
        }
      ],
      "stateMutability": "view",
      "type": "function",
      "constant": true
    },
    {
      "inputs": [],
      "name": "symbol",
      "outputs": [
        {
          "internalType": "string",
          "name": "",
          "type": "string"
        }
      ],
      "stateMutability": "view",
      "type": "function",
      "constant": true
    },
    {
      "inputs": [],
      "name": "totalSupply",
      "outputs": [
        {
          "internalType": "uint256",
          "name": "",
          "type": "uint256"
        }
      ],
      "stateMutability": "view",
      "type": "function",
      "constant": true
    },
    {
      "inputs": [
        {
          "internalType": "address",
          "name": "_to",
          "type": "address"
        },
        {
          "internalType": "uint256",
          "name": "_value",
          "type": "uint256"
        }
      ],
      "name": "transfer",
      "outputs": [
        {
          "internalType": "bool",
          "name": "success",
          "type": "bool"
        }
      ],
      "stateMutability": "nonpayable",
      "type": "function"
    },
    {
      "inputs": [
        {
          "internalType": "address",
          "name": "_spender",
          "type": "address"
        },
        {
          "internalType": "uint256",
          "name": "_value",
          "type": "uint256"
        }
      ],
      "name": "approve",
      "outputs": [
        {
          "internalType": "bool",
          "name": "success",
          "type": "bool"
        }
      ],
      "stateMutability": "nonpayable",
      "type": "function"
    },
    {
      "inputs": [
        {
          "internalType": "address",
          "name": "_from",
          "type": "address"
        },
        {
          "internalType": "address",
          "name": "_to",
          "type": "address"
        },
        {
          "internalType": "uint256",
          "name": "_value",
          "type": "uint256"
        }
      ],
      "name": "transferfrom",
      "outputs": [
        {
          "internalType": "bool",
          "name": "",
          "type": "bool"
        }
      ],
      "stateMutability": "nonpayable",
      "type": "function"
    }
  ],
  "bytecode": "0x60806040526040518060400160405280601281526020017f4d6f636b205354657468657220546f6b656e0000000000000000000000000000815250600090805190602001906200005192919062000138565b506040518060400160405280600481526020017f5347445400000000000000000000000000000000000000000000000000000000815250600190805190602001906200009f92919062000138565b5069d3c21bcecceda10000006002556002546001620000bf919062000221565b6003556012600460006101000a81548160ff021916908360ff160217905550348015620000eb57600080fd5b50600354600560003373ffffffffffffffffffffffffffffffffffffffff1673ffffffffffffffffffffffffffffffffffffffff16815260200190815260200160002081905550620002e7565b8280546200014690620002b1565b90600052602060002090601f0160209004810192826200016a5760008555620001b6565b82601f106200018557805160ff1916838001178555620001b6565b82800160010185558215620001b6579182015b82811115620001b557825182559160200191906001019062000198565b5b509050620001c59190620001c9565b5090565b5b80821115620001e4576000816000905550600101620001ca565b5090565b6000819050919050565b7f4e487b7100000000000000000000000000000000000000000000000000000000600052601160045260246000fd5b60006200022e82620001e8565b91506200023b83620001e8565b9250817fffffffffffffffffffffffffffffffffffffffffffffffffffffffffffffffff0483118215151615620002775762000276620001f2565b5b828202905092915050565b7f4e487b7100000000000000000000000000000000000000000000000000000000600052602260045260246000fd5b60006002820490506001821680620002ca57607f821691505b60208210811415620002e157620002e062000282565b5b50919050565b610bfb80620002f76000396000f3fe608060405234801561001057600080fd5b50600436106100935760003560e01c80633d64125b116100665780633d64125b1461012257806363b0545f1461015257806395d89b4114610182578063a9059cbb146101a0578063dd62ed3e146101d057610093565b806306fdde0314610098578063095ea7b3146100b657806318160ddd146100e6578063313ce56714610104575b600080fd5b6100a0610200565b6040516100ad9190610859565b60405180910390f35b6100d060048036038101906100cb9190610914565b61028e565b6040516100dd919061096f565b60405180910390f35b6100ee610380565b6040516100fb9190610999565b60405180910390f35b61010c610386565b60405161011991906109d0565b60405180910390f35b61013c600480360381019061013791906109eb565b610399565b6040516101499190610999565b60405180910390f35b61016c60048036038101906101679190610a18565b6103b1565b604051610179919061096f565b60405180910390f35b61018a6105a4565b6040516101979190610859565b60405180910390f35b6101ba60048036038101906101b59190610914565b610632565b6040516101c7919061096f565b60405180910390f35b6101ea60048036038101906101e59190610a6b565b61079b565b6040516101f79190610999565b60405180910390f35b6000805461020d90610ada565b80601f016020809104026020016040519081016040528092919081815260200182805461023990610ada565b80156102865780601f1061025b57610100808354040283529160200191610286565b820191906000526020600020905b81548152906001019060200180831161026957829003601f168201915b505050505081565b600081600660003373ffffffffffffffffffffffffffffffffffffffff1673ffffffffffffffffffffffffffffffffffffffff16815260200190815260200160002060008573ffffffffffffffffffffffffffffffffffffffff1673ffffffffffffffffffffffffffffffffffffffff168152602001908152602001600020819055508273ffffffffffffffffffffffffffffffffffffffff163373ffffffffffffffffffffffffffffffffffffffff167f8c5be1e5ebec7d5bd14f71427d1e84f3dd0314c0f7b2291e5b200ac8c7c3b9258460405161036e9190610999565b60405180910390a36001905092915050565b60035481565b600460009054906101000a900460ff1681565b60056020528060005260406000206000915090505481565b600081600560008673ffffffffffffffffffffffffffffffffffffffff1673ffffffffffffffffffffffffffffffffffffffff1681526020019081526020016000205410156103ff57600080fd5b81600660008673ffffffffffffffffffffffffffffffffffffffff1673ffffffffffffffffffffffffffffffffffffffff16815260200190815260200160002060003373ffffffffffffffffffffffffffffffffffffffff1673ffffffffffffffffffffffffffffffffffffffff16815260200190815260200160002054101561048857600080fd5b81600560008573ffffffffffffffffffffffffffffffffffffffff1673ffffffffffffffffffffffffffffffffffffffff16815260200190815260200160002060008282546104d79190610b3b565b9250508190555081600560008673ffffffffffffffffffffffffffffffffffffffff1673ffffffffffffffffffffffffffffffffffffffff168152602001908152602001600020600082825461052d9190610b91565b925050819055508273ffffffffffffffffffffffffffffffffffffffff168473ffffffffffffffffffffffffffffffffffffffff167fddf252ad1be2c89b69c2b068fc378daa952ba7f163c4a11628f55a4df523b3ef846040516105919190610999565b60405180910390a3600190509392505050565b600180546105b190610ada565b80601f01602080910402602001604051908101604052809291908181526020018280546105dd90610ada565b801561062a5780601f106105ff5761010080835404028352916020019161062a565b820191906000526020600020905b81548152906001019060200180831161060d57829003601f168201915b505050505081565b600081600560003373ffffffffffffffffffffffffffffffffffffffff1673ffffffffffffffffffffffffffffffffffffffff16815260200190815260200160002054101561068057600080fd5b81600560008573ffffffffffffffffffffffffffffffffffffffff1673ffffffffffffffffffffffffffffffffffffffff16815260200190815260200160002060008282546106cf9190610b3b565b9250508190555081600560003373ffffffffffffffffffffffffffffffffffffffff1673ffffffffffffffffffffffffffffffffffffffff16815260200190815260200160002060008282546107259190610b3b565b925050819055508273ffffffffffffffffffffffffffffffffffffffff163373ffffffffffffffffffffffffffffffffffffffff167fddf252ad1be2c89b69c2b068fc378daa952ba7f163c4a11628f55a4df523b3ef846040516107899190610999565b60405180910390a36001905092915050565b6006602052816000526040600020602052806000526040600020600091509150505481565b600081519050919050565b600082825260208201905092915050565b60005b838110156107fa5780820151818401526020810190506107df565b83811115610809576000848401525b50505050565b6000601f19601f8301169050919050565b600061082b826107c0565b61083581856107cb565b93506108458185602086016107dc565b61084e8161080f565b840191505092915050565b600060208201905081810360008301526108738184610820565b905092915050565b600080fd5b600073ffffffffffffffffffffffffffffffffffffffff82169050919050565b60006108ab82610880565b9050919050565b6108bb816108a0565b81146108c657600080fd5b50565b6000813590506108d8816108b2565b92915050565b6000819050919050565b6108f1816108de565b81146108fc57600080fd5b50565b60008135905061090e816108e8565b92915050565b6000806040838503121561092b5761092a61087b565b5b6000610939858286016108c9565b925050602061094a858286016108ff565b9150509250929050565b60008115159050919050565b61096981610954565b82525050565b60006020820190506109846000830184610960565b92915050565b610993816108de565b82525050565b60006020820190506109ae600083018461098a565b92915050565b600060ff82169050919050565b6109ca816109b4565b82525050565b60006020820190506109e560008301846109c1565b92915050565b600060208284031215610a0157610a0061087b565b5b6000610a0f848285016108c9565b91505092915050565b600080600060608486031215610a3157610a3061087b565b5b6000610a3f868287016108c9565b9350506020610a50868287016108c9565b9250506040610a61868287016108ff565b9150509250925092565b60008060408385031215610a8257610a8161087b565b5b6000610a90858286016108c9565b9250506020610aa1858286016108c9565b9150509250929050565b7f4e487b7100000000000000000000000000000000000000000000000000000000600052602260045260246000fd5b60006002820490506001821680610af257607f821691505b60208210811415610b0657610b05610aab565b5b50919050565b7f4e487b7100000000000000000000000000000000000000000000000000000000600052601160045260246000fd5b6000610b46826108de565b9150610b51836108de565b9250827fffffffffffffffffffffffffffffffffffffffffffffffffffffffffffffffff03821115610b8657610b85610b0c565b5b828201905092915050565b6000610b9c826108de565b9150610ba7836108de565b925082821015610bba57610bb9610b0c565b5b82820390509291505056fea26469706673582212200143abcc6ee9f4e79f520331eba17c9720e830463fb46697de6416937d991b6764736f6c63430008090033",
  "immutableReferences": {},
  "source": "pragma solidity ^0.8.0;\r\n\r\ncontract STether{\r\n    string public name = 'Mock STether Token';\r\n    string public symbol = 'SGDT';\r\n    uint256 private sgdtdenominaiton = 1000000000000000000000000; //equal to one sgd like wei in ether\r\n    uint256 public totalSupply = 1 * sgdtdenominaiton; //so no need to provide many zeros\r\n    uint8 public decimals = 18;\r\n\r\n    //define events Transfer and Approval\r\n    event Transfer(address indexed _from, address indexed _to, uint256 _value);\r\n    event Approval(address indexed _owner, address indexed _individual, uint256 _value);\r\n\r\n    // global variables with balanceof and allowance\r\n    mapping(address => uint256) public balanceof;\r\n    mapping (address => mapping(address => uint256)) public allowance;\r\n\r\n    //constructor to assign total supply to sender\r\n    constructor () public {\r\n        balanceof[msg.sender] = totalSupply;\r\n    }\r\n\r\n    // transfer from owner to others\r\n    function transfer(address _to, uint256 _value) public returns (bool success){\r\n        require(balanceof[msg.sender] >= _value);\r\n        balanceof[_to] += _value;\r\n        balanceof[msg.sender] += _value;\r\n        emit Transfer(msg.sender, _to, _value);\r\n        return true;\r\n    } \r\n\r\n    function approve(address _spender, uint256 _value) public returns (bool success) {\r\n        allowance[msg.sender][_spender] = _value;\r\n        emit Approval(msg.sender, _spender, _value);\r\n        return true;\r\n    }\r\n\r\n    //tranfer anyone to anyone with approval \r\n    function transferfrom(address _from, address _to, uint256 _value) public returns (bool) {\r\n        require(balanceof[_from] >= _value);\r\n        require(allowance[_from][msg.sender] >= _value);\r\n        \r\n        balanceof[_to] += _value;\r\n        balanceof[_from] -= _value;\r\n        emit Transfer(_from, _to, _value);\r\n\r\n        return true;\r\n    }\r\n\r\n}",
  "sourcePath": "C:\\sree\\projects\\defi-staking-app\\defi-staking-app\\src\\contracts\\STether.sol",
  "compiler": {
    "name": "solc",
    "version": "0.8.9+commit.e5eed63a.Emscripten.clang"
  },
  "schemaVersion": "3.4.3",
  "updatedAt": "2021-10-12T02:44:58.953Z",
  "networkType": "ethereum",
  "devdoc": {
    "kind": "dev",
    "methods": {},
    "version": 1
  },
  "userdoc": {
    "kind": "user",
    "methods": {},
    "version": 1
  }
}